{
  "_format": "hh-sol-artifact-1",
  "contractName": "MyEpicNFT",
  "sourceName": "contracts/MyEpicNFT.sol",
  "abi": [
    {
      "inputs": [],
      "stateMutability": "nonpayable",
      "type": "constructor"
    },
    {
      "anonymous": false,
      "inputs": [
        {
          "indexed": true,
          "internalType": "address",
          "name": "owner",
          "type": "address"
        },
        {
          "indexed": true,
          "internalType": "address",
          "name": "approved",
          "type": "address"
        },
        {
          "indexed": true,
          "internalType": "uint256",
          "name": "tokenId",
          "type": "uint256"
        }
      ],
      "name": "Approval",
      "type": "event"
    },
    {
      "anonymous": false,
      "inputs": [
        {
          "indexed": true,
          "internalType": "address",
          "name": "owner",
          "type": "address"
        },
        {
          "indexed": true,
          "internalType": "address",
          "name": "operator",
          "type": "address"
        },
        {
          "indexed": false,
          "internalType": "bool",
          "name": "approved",
          "type": "bool"
        }
      ],
      "name": "ApprovalForAll",
      "type": "event"
    },
    {
      "anonymous": false,
      "inputs": [
        {
          "indexed": false,
          "internalType": "address",
          "name": "sender",
          "type": "address"
        },
        {
          "indexed": false,
          "internalType": "uint256",
          "name": "tokenId",
          "type": "uint256"
        }
      ],
      "name": "NewEpicNFTMinted",
      "type": "event"
    },
    {
      "anonymous": false,
      "inputs": [
        {
          "indexed": true,
          "internalType": "address",
          "name": "from",
          "type": "address"
        },
        {
          "indexed": true,
          "internalType": "address",
          "name": "to",
          "type": "address"
        },
        {
          "indexed": true,
          "internalType": "uint256",
          "name": "tokenId",
          "type": "uint256"
        }
      ],
      "name": "Transfer",
      "type": "event"
    },
    {
      "inputs": [
        {
          "internalType": "address",
          "name": "to",
          "type": "address"
        },
        {
          "internalType": "uint256",
          "name": "tokenId",
          "type": "uint256"
        }
      ],
      "name": "approve",
      "outputs": [],
      "stateMutability": "nonpayable",
      "type": "function"
    },
    {
      "inputs": [
        {
          "internalType": "address",
          "name": "owner",
          "type": "address"
        }
      ],
      "name": "balanceOf",
      "outputs": [
        {
          "internalType": "uint256",
          "name": "",
          "type": "uint256"
        }
      ],
      "stateMutability": "view",
      "type": "function"
    },
    {
      "inputs": [
        {
          "internalType": "uint256",
          "name": "tokenId",
          "type": "uint256"
        }
      ],
      "name": "getApproved",
      "outputs": [
        {
          "internalType": "address",
          "name": "",
          "type": "address"
        }
      ],
      "stateMutability": "view",
      "type": "function"
    },
    {
      "inputs": [],
      "name": "getNFTsMinted",
      "outputs": [
        {
          "internalType": "uint256",
          "name": "",
          "type": "uint256"
        }
      ],
      "stateMutability": "view",
      "type": "function"
    },
    {
      "inputs": [
        {
          "internalType": "address",
          "name": "owner",
          "type": "address"
        },
        {
          "internalType": "address",
          "name": "operator",
          "type": "address"
        }
      ],
      "name": "isApprovedForAll",
      "outputs": [
        {
          "internalType": "bool",
          "name": "",
          "type": "bool"
        }
      ],
      "stateMutability": "view",
      "type": "function"
    },
    {
      "inputs": [],
      "name": "makeAnEpicNFT",
      "outputs": [],
      "stateMutability": "nonpayable",
      "type": "function"
    },
    {
      "inputs": [],
      "name": "name",
      "outputs": [
        {
          "internalType": "string",
          "name": "",
          "type": "string"
        }
      ],
      "stateMutability": "view",
      "type": "function"
    },
    {
      "inputs": [
        {
          "internalType": "uint256",
          "name": "tokenId",
          "type": "uint256"
        }
      ],
      "name": "ownerOf",
      "outputs": [
        {
          "internalType": "address",
          "name": "",
          "type": "address"
        }
      ],
      "stateMutability": "view",
      "type": "function"
    },
    {
      "inputs": [
        {
          "internalType": "uint256",
          "name": "tokenId",
          "type": "uint256"
        }
      ],
      "name": "pickRandomFirstWord",
      "outputs": [
        {
          "internalType": "string",
          "name": "",
          "type": "string"
        }
      ],
      "stateMutability": "view",
      "type": "function"
    },
    {
      "inputs": [
        {
          "internalType": "uint256",
          "name": "tokenId",
          "type": "uint256"
        }
      ],
      "name": "pickRandomSecondWord",
      "outputs": [
        {
          "internalType": "string",
          "name": "",
          "type": "string"
        }
      ],
      "stateMutability": "view",
      "type": "function"
    },
    {
      "inputs": [
        {
          "internalType": "uint256",
          "name": "tokenId",
          "type": "uint256"
        }
      ],
      "name": "pickRandomThirdWord",
      "outputs": [
        {
          "internalType": "string",
          "name": "",
          "type": "string"
        }
      ],
      "stateMutability": "view",
      "type": "function"
    },
    {
      "inputs": [
        {
          "internalType": "address",
          "name": "from",
          "type": "address"
        },
        {
          "internalType": "address",
          "name": "to",
          "type": "address"
        },
        {
          "internalType": "uint256",
          "name": "tokenId",
          "type": "uint256"
        }
      ],
      "name": "safeTransferFrom",
      "outputs": [],
      "stateMutability": "nonpayable",
      "type": "function"
    },
    {
      "inputs": [
        {
          "internalType": "address",
          "name": "from",
          "type": "address"
        },
        {
          "internalType": "address",
          "name": "to",
          "type": "address"
        },
        {
          "internalType": "uint256",
          "name": "tokenId",
          "type": "uint256"
        },
        {
          "internalType": "bytes",
          "name": "_data",
          "type": "bytes"
        }
      ],
      "name": "safeTransferFrom",
      "outputs": [],
      "stateMutability": "nonpayable",
      "type": "function"
    },
    {
      "inputs": [
        {
          "internalType": "address",
          "name": "operator",
          "type": "address"
        },
        {
          "internalType": "bool",
          "name": "approved",
          "type": "bool"
        }
      ],
      "name": "setApprovalForAll",
      "outputs": [],
      "stateMutability": "nonpayable",
      "type": "function"
    },
    {
      "inputs": [
        {
          "internalType": "bytes4",
          "name": "interfaceId",
          "type": "bytes4"
        }
      ],
      "name": "supportsInterface",
      "outputs": [
        {
          "internalType": "bool",
          "name": "",
          "type": "bool"
        }
      ],
      "stateMutability": "view",
      "type": "function"
    },
    {
      "inputs": [],
      "name": "symbol",
      "outputs": [
        {
          "internalType": "string",
          "name": "",
          "type": "string"
        }
      ],
      "stateMutability": "view",
      "type": "function"
    },
    {
      "inputs": [
        {
          "internalType": "uint256",
          "name": "tokenId",
          "type": "uint256"
        }
      ],
      "name": "tokenURI",
      "outputs": [
        {
          "internalType": "string",
          "name": "",
          "type": "string"
        }
      ],
      "stateMutability": "view",
      "type": "function"
    },
    {
      "inputs": [
        {
          "internalType": "address",
          "name": "from",
          "type": "address"
        },
        {
          "internalType": "address",
          "name": "to",
          "type": "address"
        },
        {
          "internalType": "uint256",
          "name": "tokenId",
          "type": "uint256"
        }
      ],
      "name": "transferFrom",
      "outputs": [],
      "stateMutability": "nonpayable",
      "type": "function"
    }
  ],
  "bytecode": "0x6080604052601460085560405180610160016040528061012f81526020016200486761012f9139600990805190602001906200003d92919062000aac565b506040518061018001604052806040518060400160405280600881526020017f6f62656469656e7400000000000000000000000000000000000000000000000081525081526020016040518060400160405280600581526020017f626164676500000000000000000000000000000000000000000000000000000081525081526020016040518060400160405280600781526020017f64617368696e670000000000000000000000000000000000000000000000000081525081526020016040518060400160405280600781526020017f776167676973680000000000000000000000000000000000000000000000000081525081526020016040518060400160405280600481526020017f686f726e0000000000000000000000000000000000000000000000000000000081525081526020016040518060400160405280600681526020017f757070697479000000000000000000000000000000000000000000000000000081525081526020016040518060400160405280600a81526020017f77686973706572696e670000000000000000000000000000000000000000000081525081526020016040518060400160405280600581526020017f626c61636b00000000000000000000000000000000000000000000000000000081525081526020016040518060400160405280600781526020017f6c6561746865720000000000000000000000000000000000000000000000000081525081526020016040518060400160405280600481526020017f73686f700000000000000000000000000000000000000000000000000000000081525081526020016040518060400160405280600881526020017f616464696374656400000000000000000000000000000000000000000000000081525081526020016040518060400160405280600481526020017f7377696d00000000000000000000000000000000000000000000000000000000815250815250600a90600c6200031e92919062000b3d565b506040518061018001604052806040518060400160405280600481526020017f7061696c0000000000000000000000000000000000000000000000000000000081525081526020016040518060400160405280600a81526020017f73747570656e646f75730000000000000000000000000000000000000000000081525081526020016040518060400160405280600981526020017f61676f6e697a696e67000000000000000000000000000000000000000000000081525081526020016040518060400160405280600381526020017f74656e000000000000000000000000000000000000000000000000000000000081525081526020016040518060400160405280600a81526020017f70756e6973686d656e740000000000000000000000000000000000000000000081525081526020016040518060400160405280600481526020017f776f6f640000000000000000000000000000000000000000000000000000000081525081526020016040518060400160405280600581526020017f676565736500000000000000000000000000000000000000000000000000000081525081526020016040518060400160405280600881526020017f74697265736f6d6500000000000000000000000000000000000000000000000081525081526020016040518060400160405280600481526020017f736869700000000000000000000000000000000000000000000000000000000081525081526020016040518060400160405280600781526020017f746572726966790000000000000000000000000000000000000000000000000081525081526020016040518060400160405280600481526020017f74726f740000000000000000000000000000000000000000000000000000000081525081526020016040518060400160405280600381526020017f7265640000000000000000000000000000000000000000000000000000000000815250815250600b90600c620005ff92919062000b3d565b506040518061018001604052806040518060400160405280600681526020017f706f72746572000000000000000000000000000000000000000000000000000081525081526020016040518060400160405280600781526020017f776f72726965640000000000000000000000000000000000000000000000000081525081526020016040518060400160405280600681526020017f636f6c6c6172000000000000000000000000000000000000000000000000000081525081526020016040518060400160405280600981526020017f6f7665727261746564000000000000000000000000000000000000000000000081525081526020016040518060400160405280600881526020017f646566656174656400000000000000000000000000000000000000000000000081525081526020016040518060400160405280600681526020017f6d7572646572000000000000000000000000000000000000000000000000000081525081526020016040518060400160405280600381526020017f74656e000000000000000000000000000000000000000000000000000000000081525081526020016040518060400160405280600581526020017f7368616b7900000000000000000000000000000000000000000000000000000081525081526020016040518060400160405280600481526020017f6368696e0000000000000000000000000000000000000000000000000000000081525081526020016040518060400160405280600881526020017f6e6562756c6f757300000000000000000000000000000000000000000000000081525081526020016040518060400160405280600481526020017f736964650000000000000000000000000000000000000000000000000000000081525081526020016040518060400160405280600681526020017f696e666f726d0000000000000000000000000000000000000000000000000000815250815250600c90600c620008e092919062000b3d565b50348015620008ee57600080fd5b506040518060400160405280600981526020017f5371756172654e465400000000000000000000000000000000000000000000008152506040518060400160405280600681526020017f535155415245000000000000000000000000000000000000000000000000000081525081600090805190602001906200097392919062000aac565b5080600190805190602001906200098c92919062000aac565b505050620009da6040518060400160405280601e81526020017f54686973206973206d79204e465420636f6e74726163742e20576f6168210000815250620009e060201b620011491760201c565b62000d5e565b62000a8081604051602401620009f7919062000c72565b6040516020818303038152906040527f41304fac000000000000000000000000000000000000000000000000000000007bffffffffffffffffffffffffffffffffffffffffffffffffffffffff19166020820180517bffffffffffffffffffffffffffffffffffffffffffffffffffffffff838183161783525050505062000a8360201b60201c565b50565b60008151905060006a636f6e736f6c652e6c6f679050602083016000808483855afa5050505050565b82805462000aba9062000ce8565b90600052602060002090601f01602090048101928262000ade576000855562000b2a565b82601f1062000af957805160ff191683800117855562000b2a565b8280016001018555821562000b2a579182015b8281111562000b2957825182559160200191906001019062000b0c565b5b50905062000b39919062000ba4565b5090565b82805482825590600052602060002090810192821562000b91579160200282015b8281111562000b9057825182908051906020019062000b7f92919062000aac565b509160200191906001019062000b5e565b5b50905062000ba0919062000bc3565b5090565b5b8082111562000bbf57600081600090555060010162000ba5565b5090565b5b8082111562000be7576000818162000bdd919062000beb565b5060010162000bc4565b5090565b50805462000bf99062000ce8565b6000825580601f1062000c0d575062000c2e565b601f01602090049060005260206000209081019062000c2d919062000ba4565b5b50565b600062000c3e8262000c96565b62000c4a818562000ca1565b935062000c5c81856020860162000cb2565b62000c678162000d4d565b840191505092915050565b6000602082019050818103600083015262000c8e818462000c31565b905092915050565b600081519050919050565b600082825260208201905092915050565b60005b8381101562000cd257808201518184015260208101905062000cb5565b8381111562000ce2576000848401525b50505050565b6000600282049050600182168062000d0157607f821691505b6020821081141562000d185762000d1762000d1e565b5b50919050565b7f4e487b7100000000000000000000000000000000000000000000000000000000600052602260045260246000fd5b6000601f19601f8301169050919050565b613af98062000d6e6000396000f3fe608060405234801561001057600080fd5b50600436106101165760003560e01c806395d89b41116100a2578063c575757a11610071578063c575757a14610303578063c87b56dd14610333578063cdca003814610363578063de9d132f14610381578063e985e9c51461038b57610116565b806395d89b411461027d578063a22cb4651461029b578063b187301f146102b7578063b88d4fde146102e757610116565b806323b872dd116100e957806323b872dd146101b55780632de38d68146101d157806342842e0e146102015780636352211e1461021d57806370a082311461024d57610116565b806301ffc9a71461011b57806306fdde031461014b578063081812fc14610169578063095ea7b314610199575b600080fd5b61013560048036038101906101309190612575565b6103bb565b6040516101429190612ca2565b60405180910390f35b61015361049d565b6040516101609190612cbd565b60405180910390f35b610183600480360381019061017e91906125c7565b61052f565b6040516101909190612c12565b60405180910390f35b6101b360048036038101906101ae9190612539565b6105b4565b005b6101cf60048036038101906101ca9190612433565b6106cc565b005b6101eb60048036038101906101e691906125c7565b61072c565b6040516101f89190612cbd565b60405180910390f35b61021b60048036038101906102169190612433565b61084a565b005b610237600480360381019061023291906125c7565b61086a565b6040516102449190612c12565b60405180910390f35b610267600480360381019061026291906123ce565b61091c565b6040516102749190612f3d565b60405180910390f35b6102856109d4565b6040516102929190612cbd565b60405180910390f35b6102b560048036038101906102b091906124fd565b610a66565b005b6102d160048036038101906102cc91906125c7565b610a7c565b6040516102de9190612cbd565b60405180910390f35b61030160048036038101906102fc9190612482565b610b9a565b005b61031d600480360381019061031891906125c7565b610bfc565b60405161032a9190612cbd565b60405180910390f35b61034d600480360381019061034891906125c7565b610d1a565b60405161035a9190612cbd565b60405180910390f35b61036b610e6c565b6040516103789190612f3d565b60405180910390f35b610389610e82565b005b6103a560048036038101906103a091906123f7565b6110b5565b6040516103b29190612ca2565b60405180910390f35b60007f80ac58cd000000000000000000000000000000000000000000000000000000007bffffffffffffffffffffffffffffffffffffffffffffffffffffffff1916827bffffffffffffffffffffffffffffffffffffffffffffffffffffffff1916148061048657507f5b5e139f000000000000000000000000000000000000000000000000000000007bffffffffffffffffffffffffffffffffffffffffffffffffffffffff1916827bffffffffffffffffffffffffffffffffffffffffffffffffffffffff1916145b806104965750610495826111e2565b5b9050919050565b6060600080546104ac906131d1565b80601f01602080910402602001604051908101604052809291908181526020018280546104d8906131d1565b80156105255780601f106104fa57610100808354040283529160200191610525565b820191906000526020600020905b81548152906001019060200180831161050857829003601f168201915b5050505050905090565b600061053a8261124c565b610579576040517f08c379a000000000000000000000000000000000000000000000000000000000815260040161057090612ebd565b60405180910390fd5b6004600083815260200190815260200160002060009054906101000a900473ffffffffffffffffffffffffffffffffffffffff169050919050565b60006105bf8261086a565b90508073ffffffffffffffffffffffffffffffffffffffff168373ffffffffffffffffffffffffffffffffffffffff161415610630576040517f08c379a000000000000000000000000000000000000000000000000000000000815260040161062790612efd565b60405180910390fd5b8073ffffffffffffffffffffffffffffffffffffffff1661064f6112b8565b73ffffffffffffffffffffffffffffffffffffffff16148061067e575061067d816106786112b8565b6110b5565b5b6106bd576040517f08c379a00000000000000000000000000000000000000000000000000000000081526004016106b490612dfd565b60405180910390fd5b6106c783836112c0565b505050565b6106dd6106d76112b8565b82611379565b61071c576040517f08c379a000000000000000000000000000000000000000000000000000000000815260040161071390612f1d565b60405180910390fd5b610727838383611457565b505050565b6060600061076061073c846116be565b60405160200161074c9190612bce565b60405160208183030381529060405261186b565b9050600a8054905081610773919061327d565b9050600a81815481106107af577f4e487b7100000000000000000000000000000000000000000000000000000000600052603260045260246000fd5b9060005260206000200180546107c4906131d1565b80601f01602080910402602001604051908101604052809291908181526020018280546107f0906131d1565b801561083d5780601f106108125761010080835404028352916020019161083d565b820191906000526020600020905b81548152906001019060200180831161082057829003601f168201915b5050505050915050919050565b61086583838360405180602001604052806000815250610b9a565b505050565b6000806002600084815260200190815260200160002060009054906101000a900473ffffffffffffffffffffffffffffffffffffffff169050600073ffffffffffffffffffffffffffffffffffffffff168173ffffffffffffffffffffffffffffffffffffffff161415610913576040517f08c379a000000000000000000000000000000000000000000000000000000000815260040161090a90612e3d565b60405180910390fd5b80915050919050565b60008073ffffffffffffffffffffffffffffffffffffffff168273ffffffffffffffffffffffffffffffffffffffff16141561098d576040517f08c379a000000000000000000000000000000000000000000000000000000000815260040161098490612e1d565b60405180910390fd5b600360008373ffffffffffffffffffffffffffffffffffffffff1673ffffffffffffffffffffffffffffffffffffffff168152602001908152602001600020549050919050565b6060600180546109e3906131d1565b80601f0160208091040260200160405190810160405280929190818152602001828054610a0f906131d1565b8015610a5c5780601f10610a3157610100808354040283529160200191610a5c565b820191906000526020600020905b815481529060010190602001808311610a3f57829003601f168201915b5050505050905090565b610a78610a716112b8565b838361189e565b5050565b60606000610ab0610a8c846116be565b604051602001610a9c9190612b67565b60405160208183030381529060405261186b565b9050600b8054905081610ac3919061327d565b9050600b8181548110610aff577f4e487b7100000000000000000000000000000000000000000000000000000000600052603260045260246000fd5b906000526020600020018054610b14906131d1565b80601f0160208091040260200160405190810160405280929190818152602001828054610b40906131d1565b8015610b8d5780601f10610b6257610100808354040283529160200191610b8d565b820191906000526020600020905b815481529060010190602001808311610b7057829003601f168201915b5050505050915050919050565b610bab610ba56112b8565b83611379565b610bea576040517f08c379a0000000000000000000000000000000000000000000000000000000008152600401610be190612f1d565b60405180910390fd5b610bf684848484611a0b565b50505050565b60606000610c30610c0c846116be565b604051602001610c1c9190612b45565b60405160208183030381529060405261186b565b9050600c8054905081610c43919061327d565b9050600c8181548110610c7f577f4e487b7100000000000000000000000000000000000000000000000000000000600052603260045260246000fd5b906000526020600020018054610c94906131d1565b80601f0160208091040260200160405190810160405280929190818152602001828054610cc0906131d1565b8015610d0d5780601f10610ce257610100808354040283529160200191610d0d565b820191906000526020600020905b815481529060010190602001808311610cf057829003601f168201915b5050505050915050919050565b6060610d258261124c565b610d64576040517f08c379a0000000000000000000000000000000000000000000000000000000008152600401610d5b90612e9d565b60405180910390fd5b6000600660008481526020019081526020016000208054610d84906131d1565b80601f0160208091040260200160405190810160405280929190818152602001828054610db0906131d1565b8015610dfd5780601f10610dd257610100808354040283529160200191610dfd565b820191906000526020600020905b815481529060010190602001808311610de057829003601f168201915b505050505090506000610e0e611a67565b9050600081511415610e24578192505050610e67565b600082511115610e59578082604051602001610e41929190612ac1565b60405160208183030381529060405292505050610e67565b610e6284611a7e565b925050505b919050565b600080610e796007611b25565b90508091505090565b6000610e8e6007611b25565b9050600854610e9b610e6c565b1115610edc576040517f08c379a0000000000000000000000000000000000000000000000000000000008152600401610ed390612ddd565b60405180910390fd5b6000610ee78261072c565b90506000610ef483610a7c565b90506000610f0184610bfc565b90506000838383604051602001610f1a93929190612ae5565b60405160208183030381529060405290506000600982604051602001610f41929190612b16565b60405160208183030381529060405290506000610f8683610f6184611b33565b604051602001610f72929190612b89565b604051602081830303815290604052611b33565b9050600081604051602001610f9b9190612bf0565b6040516020818303038152906040529050610fea6040518060400160405280601581526020017f0a2d2d2d2d2d2d2d2d2d2d2d2d2d2d2d2d2d2d2d2d0000000000000000000000815250611149565b610ff381611149565b6110316040518060400160405280601581526020017f2d2d2d2d2d2d2d2d2d2d2d2d2d2d2d2d2d2d2d2d0a0000000000000000000000815250611149565b61103b3389611cf1565b6110458882611d0f565b61104f6007611d83565b611072604051806060016040528060258152602001613a5f602591398933611d99565b7febb98688741ffa4c7589bf325de30cf7becb63de567842e1ccdb6cb949fdc82c33896040516110a3929190612c79565b60405180910390a15050505050505050565b6000600560008473ffffffffffffffffffffffffffffffffffffffff1673ffffffffffffffffffffffffffffffffffffffff16815260200190815260200160002060008373ffffffffffffffffffffffffffffffffffffffff1673ffffffffffffffffffffffffffffffffffffffff16815260200190815260200160002060009054906101000a900460ff16905092915050565b6111df8160405160240161115d9190612cbd565b6040516020818303038152906040527f41304fac000000000000000000000000000000000000000000000000000000007bffffffffffffffffffffffffffffffffffffffffffffffffffffffff19166020820180517bffffffffffffffffffffffffffffffffffffffffffffffffffffffff8381831617835250505050611e38565b50565b60007f01ffc9a7000000000000000000000000000000000000000000000000000000007bffffffffffffffffffffffffffffffffffffffffffffffffffffffff1916827bffffffffffffffffffffffffffffffffffffffffffffffffffffffff1916149050919050565b60008073ffffffffffffffffffffffffffffffffffffffff166002600084815260200190815260200160002060009054906101000a900473ffffffffffffffffffffffffffffffffffffffff1673ffffffffffffffffffffffffffffffffffffffff1614159050919050565b600033905090565b816004600083815260200190815260200160002060006101000a81548173ffffffffffffffffffffffffffffffffffffffff021916908373ffffffffffffffffffffffffffffffffffffffff160217905550808273ffffffffffffffffffffffffffffffffffffffff166113338361086a565b73ffffffffffffffffffffffffffffffffffffffff167f8c5be1e5ebec7d5bd14f71427d1e84f3dd0314c0f7b2291e5b200ac8c7c3b92560405160405180910390a45050565b60006113848261124c565b6113c3576040517f08c379a00000000000000000000000000000000000000000000000000000000081526004016113ba90612dbd565b60405180910390fd5b60006113ce8361086a565b90508073ffffffffffffffffffffffffffffffffffffffff168473ffffffffffffffffffffffffffffffffffffffff161480611410575061140f81856110b5565b5b8061144e57508373ffffffffffffffffffffffffffffffffffffffff166114368461052f565b73ffffffffffffffffffffffffffffffffffffffff16145b91505092915050565b8273ffffffffffffffffffffffffffffffffffffffff166114778261086a565b73ffffffffffffffffffffffffffffffffffffffff16146114cd576040517f08c379a00000000000000000000000000000000000000000000000000000000081526004016114c490612d3d565b60405180910390fd5b600073ffffffffffffffffffffffffffffffffffffffff168273ffffffffffffffffffffffffffffffffffffffff16141561153d576040517f08c379a000000000000000000000000000000000000000000000000000000000815260040161153490612d7d565b60405180910390fd5b611548838383611e61565b6115536000826112c0565b6001600360008573ffffffffffffffffffffffffffffffffffffffff1673ffffffffffffffffffffffffffffffffffffffff16815260200190815260200160002060008282546115a391906130e7565b925050819055506001600360008473ffffffffffffffffffffffffffffffffffffffff1673ffffffffffffffffffffffffffffffffffffffff16815260200190815260200160002060008282546115fa9190613006565b92505081905550816002600083815260200190815260200160002060006101000a81548173ffffffffffffffffffffffffffffffffffffffff021916908373ffffffffffffffffffffffffffffffffffffffff160217905550808273ffffffffffffffffffffffffffffffffffffffff168473ffffffffffffffffffffffffffffffffffffffff167fddf252ad1be2c89b69c2b068fc378daa952ba7f163c4a11628f55a4df523b3ef60405160405180910390a46116b9838383611e66565b505050565b60606000821415611706576040518060400160405280600181526020017f30000000000000000000000000000000000000000000000000000000000000008152509050611866565b600082905060005b6000821461173857808061172190613234565b915050600a82611731919061305c565b915061170e565b60008167ffffffffffffffff81111561177a577f4e487b7100000000000000000000000000000000000000000000000000000000600052604160045260246000fd5b6040519080825280601f01601f1916602001820160405280156117ac5781602001600182028036833780820191505090505b5090505b6000851461185f576001826117c591906130e7565b9150600a856117d4919061327d565b60306117e09190613006565b60f81b81838151811061181c577f4e487b7100000000000000000000000000000000000000000000000000000000600052603260045260246000fd5b60200101907effffffffffffffffffffffffffffffffffffffffffffffffffffffffffffff1916908160001a905350600a85611858919061305c565b94506117b0565b8093505050505b919050565b60008160405160200161187e9190612aaa565b6040516020818303038152906040528051906020012060001c9050919050565b8173ffffffffffffffffffffffffffffffffffffffff168373ffffffffffffffffffffffffffffffffffffffff16141561190d576040517f08c379a000000000000000000000000000000000000000000000000000000000815260040161190490612d9d565b60405180910390fd5b80600560008573ffffffffffffffffffffffffffffffffffffffff1673ffffffffffffffffffffffffffffffffffffffff16815260200190815260200160002060008473ffffffffffffffffffffffffffffffffffffffff1673ffffffffffffffffffffffffffffffffffffffff16815260200190815260200160002060006101000a81548160ff0219169083151502179055508173ffffffffffffffffffffffffffffffffffffffff168373ffffffffffffffffffffffffffffffffffffffff167f17307eab39ab6107e8899845ad3d59bd9653f200f220920489ca2b5937696c31836040516119fe9190612ca2565b60405180910390a3505050565b611a16848484611457565b611a2284848484611e6b565b611a61576040517f08c379a0000000000000000000000000000000000000000000000000000000008152600401611a5890612d1d565b60405180910390fd5b50505050565b606060405180602001604052806000815250905090565b6060611a898261124c565b611ac8576040517f08c379a0000000000000000000000000000000000000000000000000000000008152600401611abf90612edd565b60405180910390fd5b6000611ad2611a67565b90506000815111611af25760405180602001604052806000815250611b1d565b80611afc846116be565b604051602001611b0d929190612ac1565b6040516020818303038152906040525b915050919050565b600081600001549050919050565b60606000825190506000811415611b5c5760405180602001604052806000815250915050611cec565b60006003600283611b6d9190613006565b611b77919061305c565b6004611b83919061308d565b90506000602082611b949190613006565b67ffffffffffffffff811115611bd3577f4e487b7100000000000000000000000000000000000000000000000000000000600052604160045260246000fd5b6040519080825280601f01601f191660200182016040528015611c055781602001600182028036833780820191505090505b5090506000604051806060016040528060408152602001613a84604091399050600181016020830160005b86811015611ca95760038101905062ffffff818a015116603f8160121c168401518060081b905060ff603f83600c1c1686015116810190508060081b905060ff603f8360061c1686015116810190508060081b905060ff603f831686015116810190508060e01b90508084526004840193505050611c30565b506003860660018114611cc35760028114611cd357611cde565b613d3d60f01b6002830352611cde565b603d60f81b60018303525b508484525050819450505050505b919050565b611d0b828260405180602001604052806000815250612002565b5050565b611d188261124c565b611d57576040517f08c379a0000000000000000000000000000000000000000000000000000000008152600401611d4e90612e5d565b60405180910390fd5b80600660008481526020019081526020016000209080519060200190611d7e92919061225a565b505050565b6001816000016000828254019250508190555050565b611e33838383604051602401611db193929190612cdf565b6040516020818303038152906040527fe3849f79000000000000000000000000000000000000000000000000000000007bffffffffffffffffffffffffffffffffffffffffffffffffffffffff19166020820180517bffffffffffffffffffffffffffffffffffffffffffffffffffffffff8381831617835250505050611e38565b505050565b60008151905060006a636f6e736f6c652e6c6f679050602083016000808483855afa5050505050565b505050565b505050565b6000611e8c8473ffffffffffffffffffffffffffffffffffffffff1661205d565b15611ff5578373ffffffffffffffffffffffffffffffffffffffff1663150b7a02611eb56112b8565b8786866040518563ffffffff1660e01b8152600401611ed79493929190612c2d565b602060405180830381600087803b158015611ef157600080fd5b505af1925050508015611f2257506040513d601f19601f82011682018060405250810190611f1f919061259e565b60015b611fa5573d8060008114611f52576040519150601f19603f3d011682016040523d82523d6000602084013e611f57565b606091505b50600081511415611f9d576040517f08c379a0000000000000000000000000000000000000000000000000000000008152600401611f9490612d1d565b60405180910390fd5b805181602001fd5b63150b7a0260e01b7bffffffffffffffffffffffffffffffffffffffffffffffffffffffff1916817bffffffffffffffffffffffffffffffffffffffffffffffffffffffff191614915050611ffa565b600190505b949350505050565b61200c8383612080565b6120196000848484611e6b565b612058576040517f08c379a000000000000000000000000000000000000000000000000000000000815260040161204f90612d1d565b60405180910390fd5b505050565b6000808273ffffffffffffffffffffffffffffffffffffffff163b119050919050565b600073ffffffffffffffffffffffffffffffffffffffff168273ffffffffffffffffffffffffffffffffffffffff1614156120f0576040517f08c379a00000000000000000000000000000000000000000000000000000000081526004016120e790612e7d565b60405180910390fd5b6120f98161124c565b15612139576040517f08c379a000000000000000000000000000000000000000000000000000000000815260040161213090612d5d565b60405180910390fd5b61214560008383611e61565b6001600360008473ffffffffffffffffffffffffffffffffffffffff1673ffffffffffffffffffffffffffffffffffffffff16815260200190815260200160002060008282546121959190613006565b92505081905550816002600083815260200190815260200160002060006101000a81548173ffffffffffffffffffffffffffffffffffffffff021916908373ffffffffffffffffffffffffffffffffffffffff160217905550808273ffffffffffffffffffffffffffffffffffffffff16600073ffffffffffffffffffffffffffffffffffffffff167fddf252ad1be2c89b69c2b068fc378daa952ba7f163c4a11628f55a4df523b3ef60405160405180910390a461225660008383611e66565b5050565b828054612266906131d1565b90600052602060002090601f01602090048101928261228857600085556122cf565b82601f106122a157805160ff19168380011785556122cf565b828001600101855582156122cf579182015b828111156122ce5782518255916020019190600101906122b3565b5b5090506122dc91906122e0565b5090565b5b808211156122f95760008160009055506001016122e1565b5090565b600061231061230b84612f7d565b612f58565b90508281526020810184848401111561232857600080fd5b61233384828561318f565b509392505050565b60008135905061234a81613a02565b92915050565b60008135905061235f81613a19565b92915050565b60008135905061237481613a30565b92915050565b60008151905061238981613a30565b92915050565b600082601f8301126123a057600080fd5b81356123b08482602086016122fd565b91505092915050565b6000813590506123c881613a47565b92915050565b6000602082840312156123e057600080fd5b60006123ee8482850161233b565b91505092915050565b6000806040838503121561240a57600080fd5b60006124188582860161233b565b92505060206124298582860161233b565b9150509250929050565b60008060006060848603121561244857600080fd5b60006124568682870161233b565b93505060206124678682870161233b565b9250506040612478868287016123b9565b9150509250925092565b6000806000806080858703121561249857600080fd5b60006124a68782880161233b565b94505060206124b78782880161233b565b93505060406124c8878288016123b9565b925050606085013567ffffffffffffffff8111156124e557600080fd5b6124f18782880161238f565b91505092959194509250565b6000806040838503121561251057600080fd5b600061251e8582860161233b565b925050602061252f85828601612350565b9150509250929050565b6000806040838503121561254c57600080fd5b600061255a8582860161233b565b925050602061256b858286016123b9565b9150509250929050565b60006020828403121561258757600080fd5b600061259584828501612365565b91505092915050565b6000602082840312156125b057600080fd5b60006125be8482850161237a565b91505092915050565b6000602082840312156125d957600080fd5b60006125e7848285016123b9565b91505092915050565b6125f98161311b565b82525050565b6126088161312d565b82525050565b600061261982612fc3565b6126238185612fd9565b935061263381856020860161319e565b61263c8161336a565b840191505092915050565b600061265282612fce565b61265c8185612fea565b935061266c81856020860161319e565b6126758161336a565b840191505092915050565b600061268b82612fce565b6126958185612ffb565b93506126a581856020860161319e565b80840191505092915050565b600081546126be816131d1565b6126c88186612ffb565b945060018216600081146126e357600181146126f457612727565b60ff19831686528186019350612727565b6126fd85612fae565b60005b8381101561271f57815481890152600182019150602081019050612700565b838801955050505b50505092915050565b600061273d603283612fea565b91506127488261337b565b604082019050919050565b6000612760602583612fea565b915061276b826133ca565b604082019050919050565b6000612783601c83612fea565b915061278e82613419565b602082019050919050565b60006127a6600a83612ffb565b91506127b182613442565b600a82019050919050565b60006127c9602483612fea565b91506127d48261346b565b604082019050919050565b60006127ec601983612fea565b91506127f7826134ba565b602082019050919050565b600061280f606383612ffb565b915061281a826134e3565b606382019050919050565b6000612832600b83612ffb565b915061283d8261357e565b600b82019050919050565b6000612855602c83612fea565b9150612860826135a7565b604082019050919050565b6000612878600d83612ffb565b9150612883826135f6565b600d82019050919050565b600061289b603083612fea565b91506128a68261361f565b604082019050919050565b60006128be603883612fea565b91506128c98261366e565b604082019050919050565b60006128e1602a83612fea565b91506128ec826136bd565b604082019050919050565b6000612904602983612fea565b915061290f8261370c565b604082019050919050565b6000612927602e83612fea565b91506129328261375b565b604082019050919050565b600061294a600283612ffb565b9150612955826137aa565b600282019050919050565b600061296d602083612fea565b9150612978826137d3565b602082019050919050565b6000612990603183612fea565b915061299b826137fc565b604082019050919050565b60006129b3602c83612fea565b91506129be8261384b565b604082019050919050565b60006129d6602f83612fea565b91506129e18261389a565b604082019050919050565b60006129f9600a83612ffb565b9150612a04826138e9565b600a82019050919050565b6000612a1c602183612fea565b9150612a2782613912565b604082019050919050565b6000612a3f600a83612ffb565b9150612a4a82613961565b600a82019050919050565b6000612a62601d83612ffb565b9150612a6d8261398a565b601d82019050919050565b6000612a85603183612fea565b9150612a90826139b3565b604082019050919050565b612aa481613185565b82525050565b6000612ab68284612680565b915081905092915050565b6000612acd8285612680565b9150612ad98284612680565b91508190509392505050565b6000612af18286612680565b9150612afd8285612680565b9150612b098284612680565b9150819050949350505050565b6000612b2282856126b1565b9150612b2e8284612680565b9150612b398261286b565b91508190509392505050565b6000612b5082612799565b9150612b5c8284612680565b915081905092915050565b6000612b7282612825565b9150612b7e8284612680565b915081905092915050565b6000612b94826129ec565b9150612ba08285612680565b9150612bab82612802565b9150612bb78284612680565b9150612bc28261293d565b91508190509392505050565b6000612bd982612a32565b9150612be58284612680565b915081905092915050565b6000612bfb82612a55565b9150612c078284612680565b915081905092915050565b6000602082019050612c2760008301846125f0565b92915050565b6000608082019050612c4260008301876125f0565b612c4f60208301866125f0565b612c5c6040830185612a9b565b8181036060830152612c6e818461260e565b905095945050505050565b6000604082019050612c8e60008301856125f0565b612c9b6020830184612a9b565b9392505050565b6000602082019050612cb760008301846125ff565b92915050565b60006020820190508181036000830152612cd78184612647565b905092915050565b60006060820190508181036000830152612cf98186612647565b9050612d086020830185612a9b565b612d1560408301846125f0565b949350505050565b60006020820190508181036000830152612d3681612730565b9050919050565b60006020820190508181036000830152612d5681612753565b9050919050565b60006020820190508181036000830152612d7681612776565b9050919050565b60006020820190508181036000830152612d96816127bc565b9050919050565b60006020820190508181036000830152612db6816127df565b9050919050565b60006020820190508181036000830152612dd681612848565b9050919050565b60006020820190508181036000830152612df68161288e565b9050919050565b60006020820190508181036000830152612e16816128b1565b9050919050565b60006020820190508181036000830152612e36816128d4565b9050919050565b60006020820190508181036000830152612e56816128f7565b9050919050565b60006020820190508181036000830152612e768161291a565b9050919050565b60006020820190508181036000830152612e9681612960565b9050919050565b60006020820190508181036000830152612eb681612983565b9050919050565b60006020820190508181036000830152612ed6816129a6565b9050919050565b60006020820190508181036000830152612ef6816129c9565b9050919050565b60006020820190508181036000830152612f1681612a0f565b9050919050565b60006020820190508181036000830152612f3681612a78565b9050919050565b6000602082019050612f526000830184612a9b565b92915050565b6000612f62612f73565b9050612f6e8282613203565b919050565b6000604051905090565b600067ffffffffffffffff821115612f9857612f9761333b565b5b612fa18261336a565b9050602081019050919050565b60008190508160005260206000209050919050565b600081519050919050565b600081519050919050565b600082825260208201905092915050565b600082825260208201905092915050565b600081905092915050565b600061301182613185565b915061301c83613185565b9250827fffffffffffffffffffffffffffffffffffffffffffffffffffffffffffffffff03821115613051576130506132ae565b5b828201905092915050565b600061306782613185565b915061307283613185565b925082613082576130816132dd565b5b828204905092915050565b600061309882613185565b91506130a383613185565b9250817fffffffffffffffffffffffffffffffffffffffffffffffffffffffffffffffff04831182151516156130dc576130db6132ae565b5b828202905092915050565b60006130f282613185565b91506130fd83613185565b9250828210156131105761310f6132ae565b5b828203905092915050565b600061312682613165565b9050919050565b60008115159050919050565b60007fffffffff0000000000000000000000000000000000000000000000000000000082169050919050565b600073ffffffffffffffffffffffffffffffffffffffff82169050919050565b6000819050919050565b82818337600083830152505050565b60005b838110156131bc5780820151818401526020810190506131a1565b838111156131cb576000848401525b50505050565b600060028204905060018216806131e957607f821691505b602082108114156131fd576131fc61330c565b5b50919050565b61320c8261336a565b810181811067ffffffffffffffff8211171561322b5761322a61333b565b5b80604052505050565b600061323f82613185565b91507fffffffffffffffffffffffffffffffffffffffffffffffffffffffffffffffff821415613272576132716132ae565b5b600182019050919050565b600061328882613185565b915061329383613185565b9250826132a3576132a26132dd565b5b828206905092915050565b7f4e487b7100000000000000000000000000000000000000000000000000000000600052601160045260246000fd5b7f4e487b7100000000000000000000000000000000000000000000000000000000600052601260045260246000fd5b7f4e487b7100000000000000000000000000000000000000000000000000000000600052602260045260246000fd5b7f4e487b7100000000000000000000000000000000000000000000000000000000600052604160045260246000fd5b6000601f19601f8301169050919050565b7f4552433732313a207472616e7366657220746f206e6f6e20455243373231526560008201527f63656976657220696d706c656d656e7465720000000000000000000000000000602082015250565b7f4552433732313a207472616e736665722066726f6d20696e636f72726563742060008201527f6f776e6572000000000000000000000000000000000000000000000000000000602082015250565b7f4552433732313a20746f6b656e20616c7265616479206d696e74656400000000600082015250565b7f54484952445f574f524400000000000000000000000000000000000000000000600082015250565b7f4552433732313a207472616e7366657220746f20746865207a65726f2061646460008201527f7265737300000000000000000000000000000000000000000000000000000000602082015250565b7f4552433732313a20617070726f766520746f2063616c6c657200000000000000600082015250565b7f222c20226465736372697074696f6e223a20224120686967686c79206163636c60008201527f61696d656420636f6c6c656374696f6e206f6620737175617265732e222c202260208201527f696d616765223a2022646174613a696d6167652f7376672b786d6c3b6261736560408201527f36342c0000000000000000000000000000000000000000000000000000000000606082015250565b7f5345434f4e445f574f5244000000000000000000000000000000000000000000600082015250565b7f4552433732313a206f70657261746f7220717565727920666f72206e6f6e657860008201527f697374656e7420746f6b656e0000000000000000000000000000000000000000602082015250565b7f3c2f746578743e3c2f7376673e00000000000000000000000000000000000000600082015250565b7f4c696d6974206f66203230204e465420666f742068697320636f6e747261637460008201527f20616c7265616479207265616368656400000000000000000000000000000000602082015250565b7f4552433732313a20617070726f76652063616c6c6572206973206e6f74206f7760008201527f6e6572206e6f7220617070726f76656420666f7220616c6c0000000000000000602082015250565b7f4552433732313a2062616c616e636520717565727920666f7220746865207a6560008201527f726f206164647265737300000000000000000000000000000000000000000000602082015250565b7f4552433732313a206f776e657220717565727920666f72206e6f6e657869737460008201527f656e7420746f6b656e0000000000000000000000000000000000000000000000602082015250565b7f45524337323155524953746f726167653a2055524920736574206f66206e6f6e60008201527f6578697374656e7420746f6b656e000000000000000000000000000000000000602082015250565b7f227d000000000000000000000000000000000000000000000000000000000000600082015250565b7f4552433732313a206d696e7420746f20746865207a65726f2061646472657373600082015250565b7f45524337323155524953746f726167653a2055524920717565727920666f722060008201527f6e6f6e6578697374656e7420746f6b656e000000000000000000000000000000602082015250565b7f4552433732313a20617070726f76656420717565727920666f72206e6f6e657860008201527f697374656e7420746f6b656e0000000000000000000000000000000000000000602082015250565b7f4552433732314d657461646174613a2055524920717565727920666f72206e6f60008201527f6e6578697374656e7420746f6b656e0000000000000000000000000000000000602082015250565b7f7b226e616d65223a202200000000000000000000000000000000000000000000600082015250565b7f4552433732313a20617070726f76616c20746f2063757272656e74206f776e6560008201527f7200000000000000000000000000000000000000000000000000000000000000602082015250565b7f46495253545f574f524400000000000000000000000000000000000000000000600082015250565b7f646174613a6170706c69636174696f6e2f6a736f6e3b6261736536342c000000600082015250565b7f4552433732313a207472616e736665722063616c6c6572206973206e6f74206f60008201527f776e6572206e6f7220617070726f766564000000000000000000000000000000602082015250565b613a0b8161311b565b8114613a1657600080fd5b50565b613a228161312d565b8114613a2d57600080fd5b50565b613a3981613139565b8114613a4457600080fd5b50565b613a5081613185565b8114613a5b57600080fd5b5056fe416e204e465420772f20494420257320686173206265656e206d696e74656420746f2025734142434445464748494a4b4c4d4e4f505152535455565758595a6162636465666768696a6b6c6d6e6f707172737475767778797a303132333435363738392b2fa2646970667358221220d1b478d9e94548eab395f340ad3916f65401f5fc25f35065577f64865e8ae5d964736f6c634300080100333c73766720786d6c6e733d27687474703a2f2f7777772e77332e6f72672f323030302f73766727207072657365727665417370656374526174696f3d27784d696e594d696e206d656574272076696577426f783d273020302033353020333530273e3c7374796c653e2e62617365207b2066696c6c3a2077686974653b20666f6e742d66616d696c793a2073657269663b20666f6e742d73697a653a20323470783b207d3c2f7374796c653e3c726563742077696474683d273130302527206865696768743d2731303025272066696c6c3d27626c61636b27202f3e3c7465787420783d273530252720793d273530252720636c6173733d27626173652720646f6d696e616e742d626173656c696e653d276d6964646c652720746578742d616e63686f723d276d6964646c65273e",
  "linkReferences": {},
  "deployedLinkReferences": {}
}